{
  "_format": "hh-sol-artifact-1",
  "contractName": "Assessment",
  "sourceName": "contracts/Assessment.sol",
  "abi": [
    {
      "inputs": [],
      "stateMutability": "nonpayable",
      "type": "constructor"
    },
    {
      "anonymous": false,
      "inputs": [
        {
          "indexed": true,
          "internalType": "address",
          "name": "buyer",
          "type": "address"
        },
        {
          "indexed": false,
          "internalType": "uint256",
          "name": "amount",
          "type": "uint256"
        },
        {
          "indexed": false,
          "internalType": "uint256",
          "name": "totalCost",
          "type": "uint256"
        }
      ],
      "name": "TicketsPurchased",
      "type": "event"
    },
    {
      "anonymous": false,
      "inputs": [
        {
          "indexed": true,
          "internalType": "address",
          "name": "user",
          "type": "address"
        },
        {
          "indexed": false,
          "internalType": "uint256",
          "name": "amount",
          "type": "uint256"
        }
      ],
      "name": "TicketsWithdrawn",
      "type": "event"
    },
    {
      "inputs": [],
      "name": "bulkTicketPrice",
      "outputs": [
        {
          "internalType": "uint256",
          "name": "",
          "type": "uint256"
        }
      ],
      "stateMutability": "view",
      "type": "function"
    },
    {
      "inputs": [
        {
          "internalType": "address",
          "name": "",
          "type": "address"
        }
      ],
      "name": "ethSpent",
      "outputs": [
        {
          "internalType": "uint256",
          "name": "",
          "type": "uint256"
        }
      ],
      "stateMutability": "view",
      "type": "function"
    },
    {
      "inputs": [],
      "name": "getContractBalance",
      "outputs": [
        {
          "internalType": "uint256",
          "name": "",
          "type": "uint256"
        }
      ],
      "stateMutability": "view",
      "type": "function"
    },
    {
      "inputs": [],
      "name": "getETHSpent",
      "outputs": [
        {
          "internalType": "uint256",
          "name": "",
          "type": "uint256"
        }
      ],
      "stateMutability": "view",
      "type": "function"
    },
    {
      "inputs": [],
      "name": "getMyTickets",
      "outputs": [
        {
          "internalType": "uint256",
          "name": "",
          "type": "uint256"
        }
      ],
      "stateMutability": "view",
      "type": "function"
    },
    {
      "inputs": [],
      "name": "owner",
      "outputs": [
        {
          "internalType": "address",
          "name": "",
          "type": "address"
        }
      ],
      "stateMutability": "view",
      "type": "function"
    },
    {
      "inputs": [
        {
          "internalType": "uint256",
          "name": "_amount",
          "type": "uint256"
        }
      ],
      "name": "purchaseTickets",
      "outputs": [],
      "stateMutability": "payable",
      "type": "function"
    },
    {
      "inputs": [],
      "name": "singleTicketPrice",
      "outputs": [
        {
          "internalType": "uint256",
          "name": "",
          "type": "uint256"
        }
      ],
      "stateMutability": "view",
      "type": "function"
    },
    {
      "inputs": [
        {
          "internalType": "address",
          "name": "",
          "type": "address"
        }
      ],
      "name": "ticketsOwned",
      "outputs": [
        {
          "internalType": "uint256",
          "name": "",
          "type": "uint256"
        }
      ],
      "stateMutability": "view",
      "type": "function"
    },
    {
      "inputs": [
        {
          "internalType": "uint256",
          "name": "_amount",
          "type": "uint256"
        }
      ],
      "name": "withdraw",
      "outputs": [],
      "stateMutability": "nonpayable",
      "type": "function"
    },
    {
      "inputs": [],
      "name": "withdrawBalance",
      "outputs": [],
      "stateMutability": "nonpayable",
      "type": "function"
    }
  ],
  "bytecode": "0x608060405234801561001057600080fd5b5033600260006101000a81548173ffffffffffffffffffffffffffffffffffffffff021916908373ffffffffffffffffffffffffffffffffffffffff160217905550610bde806100616000396000f3fe60806040526004361061009c5760003560e01c80636f9fb98a116100645780636f9fb98a146101625780638da5cb5b1461018d578063951e2021146101b8578063a1277600146101f5578063cd93aeed14610211578063e1d10d851461024e5761009c565b80631a896d99146100a15780632e1a7d4d146100cc5780635267c7e4146100f5578063546d7e7d146101205780635fd8c7101461014b575b600080fd5b3480156100ad57600080fd5b506100b6610279565b6040516100c39190610791565b60405180910390f35b3480156100d857600080fd5b506100f360048036038101906100ee91906107dd565b6102c0565b005b34801561010157600080fd5b5061010a6103e9565b6040516101179190610791565b60405180910390f35b34801561012c57600080fd5b506101356103f5565b6040516101429190610791565b60405180910390f35b34801561015757600080fd5b50610160610401565b005b34801561016e57600080fd5b506101776104bf565b6040516101849190610791565b60405180910390f35b34801561019957600080fd5b506101a26104c7565b6040516101af919061084b565b60405180910390f35b3480156101c457600080fd5b506101df60048036038101906101da9190610892565b6104f1565b6040516101ec9190610791565b60405180910390f35b61020f600480360381019061020a91906107dd565b610509565b005b34801561021d57600080fd5b5061023860048036038101906102339190610892565b61071a565b6040516102459190610791565b60405180910390f35b34801561025a57600080fd5b50610263610732565b6040516102709190610791565b60405180910390f35b6000600160003373ffffffffffffffffffffffffffffffffffffffff1673ffffffffffffffffffffffffffffffffffffffff16815260200190815260200160002054905090565b80806000803373ffffffffffffffffffffffffffffffffffffffff1673ffffffffffffffffffffffffffffffffffffffff168152602001908152602001600020541015610342576040517f08c379a00000000000000000000000000000000000000000000000000000000081526004016103399061091c565b60405180910390fd5b816000803373ffffffffffffffffffffffffffffffffffffffff1673ffffffffffffffffffffffffffffffffffffffff1681526020019081526020016000206000828254610390919061096b565b925050819055503373ffffffffffffffffffffffffffffffffffffffff167f852301229e89f156e7c6df258d5ea46465e2f22702ea66c266ad3a3252f5b944836040516103dd9190610791565b60405180910390a25050565b6729a2241af62c000081565b671bc16d674ec8000081565b6104096104c7565b73ffffffffffffffffffffffffffffffffffffffff163373ffffffffffffffffffffffffffffffffffffffff1614610476576040517f08c379a000000000000000000000000000000000000000000000000000000000815260040161046d906109eb565b60405180910390fd5b3373ffffffffffffffffffffffffffffffffffffffff166108fc479081150290604051600060405180830381858888f193505050501580156104bc573d6000803e3d6000fd5b50565b600047905090565b6000600260009054906101000a900473ffffffffffffffffffffffffffffffffffffffff16905090565b60006020528060005260406000206000915090505481565b6000811161054c576040517f08c379a000000000000000000000000000000000000000000000000000000000815260040161054390610a57565b60405180910390fd5b600060018203610566576729a2241af62c0000905061057d565b81671bc16d674ec8000061057a9190610a77565b90505b803410156105c0576040517f08c379a00000000000000000000000000000000000000000000000000000000081526004016105b790610b2b565b60405180910390fd5b816000803373ffffffffffffffffffffffffffffffffffffffff1673ffffffffffffffffffffffffffffffffffffffff168152602001908152602001600020600082825461060e9190610b4b565b9250508190555080600160003373ffffffffffffffffffffffffffffffffffffffff1673ffffffffffffffffffffffffffffffffffffffff16815260200190815260200160002060008282546106649190610b4b565b925050819055503373ffffffffffffffffffffffffffffffffffffffff167f7d58f5ddf17a7f65d89554f5d8144ae1dc788046467927063c090f92ed1145dc83836040516106b3929190610b7f565b60405180910390a280341115610716573373ffffffffffffffffffffffffffffffffffffffff166108fc82346106e9919061096b565b9081150290604051600060405180830381858888f19350505050158015610714573d6000803e3d6000fd5b505b5050565b60016020528060005260406000206000915090505481565b60008060003373ffffffffffffffffffffffffffffffffffffffff1673ffffffffffffffffffffffffffffffffffffffff16815260200190815260200160002054905090565b6000819050919050565b61078b81610778565b82525050565b60006020820190506107a66000830184610782565b92915050565b600080fd5b6107ba81610778565b81146107c557600080fd5b50565b6000813590506107d7816107b1565b92915050565b6000602082840312156107f3576107f26107ac565b5b6000610801848285016107c8565b91505092915050565b600073ffffffffffffffffffffffffffffffffffffffff82169050919050565b60006108358261080a565b9050919050565b6108458161082a565b82525050565b6000602082019050610860600083018461083c565b92915050565b61086f8161082a565b811461087a57600080fd5b50565b60008135905061088c81610866565b92915050565b6000602082840312156108a8576108a76107ac565b5b60006108b68482850161087d565b91505092915050565b600082825260208201905092915050565b7f4e6f7420656e6f756768207469636b6574730000000000000000000000000000600082015250565b60006109066012836108bf565b9150610911826108d0565b602082019050919050565b60006020820190508181036000830152610935816108f9565b9050919050565b7f4e487b7100000000000000000000000000000000000000000000000000000000600052601160045260246000fd5b600061097682610778565b915061098183610778565b92508282039050818111156109995761099861093c565b5b92915050565b7f4f6e6c79206f776e65722063616e2077697468647261772062616c616e636500600082015250565b60006109d5601f836108bf565b91506109e08261099f565b602082019050919050565b60006020820190508181036000830152610a04816109c8565b9050919050565b7f4d757374207075726368617365206174206c656173742031207469636b657400600082015250565b6000610a41601f836108bf565b9150610a4c82610a0b565b602082019050919050565b60006020820190508181036000830152610a7081610a34565b9050919050565b6000610a8282610778565b9150610a8d83610778565b9250828202610a9b81610778565b91508282048414831517610ab257610ab161093c565b5b5092915050565b7f4e6f7420656e6f756768204554482073656e7420666f72207469636b6574207060008201527f7572636861736500000000000000000000000000000000000000000000000000602082015250565b6000610b156027836108bf565b9150610b2082610ab9565b604082019050919050565b60006020820190508181036000830152610b4481610b08565b9050919050565b6000610b5682610778565b9150610b6183610778565b9250828201905080821115610b7957610b7861093c565b5b92915050565b6000604082019050610b946000830185610782565b610ba16020830184610782565b939250505056fea264697066735822122058ab2910ef7a3225aac6dabdcc74a80ca4ca5cbec31b32b442dba7fbc21dbde064736f6c63430008110033",
  "linkReferences": {},
  "deployedLinkReferences": {}
}