{"contracts/Assessment.sol":{"Assessment":{"abi":[{"inputs":[],"stateMutability":"nonpayable","type":"constructor"},{"anonymous":false,"inputs":[{"indexed":true,"internalType":"address","name":"buyer","type":"address"},{"indexed":false,"internalType":"uint256","name":"amount","type":"uint256"},{"indexed":false,"internalType":"uint256","name":"totalCost","type":"uint256"}],"name":"TicketsPurchased","type":"event"},{"anonymous":false,"inputs":[{"indexed":true,"internalType":"address","name":"user","type":"address"},{"indexed":false,"internalType":"uint256","name":"amount","type":"uint256"}],"name":"TicketsWithdrawn","type":"event"},{"inputs":[],"name":"bulkTicketPrice","outputs":[{"internalType":"uint256","name":"","type":"uint256"}],"stateMutability":"view","type":"function"},{"inputs":[{"internalType":"address","name":"","type":"address"}],"name":"ethSpent","outputs":[{"internalType":"uint256","name":"","type":"uint256"}],"stateMutability":"view","type":"function"},{"inputs":[],"name":"getContractBalance","outputs":[{"internalType":"uint256","name":"","type":"uint256"}],"stateMutability":"view","type":"function"},{"inputs":[],"name":"getETHSpent","outputs":[{"internalType":"uint256","name":"","type":"uint256"}],"stateMutability":"view","type":"function"},{"inputs":[],"name":"getMyTickets","outputs":[{"internalType":"uint256","name":"","type":"uint256"}],"stateMutability":"view","type":"function"},{"inputs":[],"name":"owner","outputs":[{"internalType":"address","name":"","type":"address"}],"stateMutability":"view","type":"function"},{"inputs":[{"internalType":"uint256","name":"_amount","type":"uint256"}],"name":"purchaseTickets","outputs":[],"stateMutability":"payable","type":"function"},{"inputs":[],"name":"singleTicketPrice","outputs":[{"internalType":"uint256","name":"","type":"uint256"}],"stateMutability":"view","type":"function"},{"inputs":[{"internalType":"address","name":"","type":"address"}],"name":"ticketsOwned","outputs":[{"internalType":"uint256","name":"","type":"uint256"}],"stateMutability":"view","type":"function"},{"inputs":[{"internalType":"uint256","name":"_amount","type":"uint256"}],"name":"withdraw","outputs":[],"stateMutability":"nonpayable","type":"function"},{"inputs":[],"name":"withdrawBalance","outputs":[],"stateMutability":"nonpayable","type":"function"}],"evm":{"bytecode":{"linkReferences":{},"object":"608060405234801561001057600080fd5b5033600260006101000a81548173ffffffffffffffffffffffffffffffffffffffff021916908373ffffffffffffffffffffffffffffffffffffffff160217905550610bde806100616000396000f3fe60806040526004361061009c5760003560e01c80636f9fb98a116100645780636f9fb98a146101625780638da5cb5b1461018d578063951e2021146101b8578063a1277600146101f5578063cd93aeed14610211578063e1d10d851461024e5761009c565b80631a896d99146100a15780632e1a7d4d146100cc5780635267c7e4146100f5578063546d7e7d146101205780635fd8c7101461014b575b600080fd5b3480156100ad57600080fd5b506100b6610279565b6040516100c39190610791565b60405180910390f35b3480156100d857600080fd5b506100f360048036038101906100ee91906107dd565b6102c0565b005b34801561010157600080fd5b5061010a6103e9565b6040516101179190610791565b60405180910390f35b34801561012c57600080fd5b506101356103f5565b6040516101429190610791565b60405180910390f35b34801561015757600080fd5b50610160610401565b005b34801561016e57600080fd5b506101776104bf565b6040516101849190610791565b60405180910390f35b34801561019957600080fd5b506101a26104c7565b6040516101af919061084b565b60405180910390f35b3480156101c457600080fd5b506101df60048036038101906101da9190610892565b6104f1565b6040516101ec9190610791565b60405180910390f35b61020f600480360381019061020a91906107dd565b610509565b005b34801561021d57600080fd5b5061023860048036038101906102339190610892565b61071a565b6040516102459190610791565b60405180910390f35b34801561025a57600080fd5b50610263610732565b6040516102709190610791565b60405180910390f35b6000600160003373ffffffffffffffffffffffffffffffffffffffff1673ffffffffffffffffffffffffffffffffffffffff16815260200190815260200160002054905090565b80806000803373ffffffffffffffffffffffffffffffffffffffff1673ffffffffffffffffffffffffffffffffffffffff168152602001908152602001600020541015610342576040517f08c379a00000000000000000000000000000000000000000000000000000000081526004016103399061091c565b60405180910390fd5b816000803373ffffffffffffffffffffffffffffffffffffffff1673ffffffffffffffffffffffffffffffffffffffff1681526020019081526020016000206000828254610390919061096b565b925050819055503373ffffffffffffffffffffffffffffffffffffffff167f852301229e89f156e7c6df258d5ea46465e2f22702ea66c266ad3a3252f5b944836040516103dd9190610791565b60405180910390a25050565b6729a2241af62c000081565b671bc16d674ec8000081565b6104096104c7565b73ffffffffffffffffffffffffffffffffffffffff163373ffffffffffffffffffffffffffffffffffffffff1614610476576040517f08c379a000000000000000000000000000000000000000000000000000000000815260040161046d906109eb565b60405180910390fd5b3373ffffffffffffffffffffffffffffffffffffffff166108fc479081150290604051600060405180830381858888f193505050501580156104bc573d6000803e3d6000fd5b50565b600047905090565b6000600260009054906101000a900473ffffffffffffffffffffffffffffffffffffffff16905090565b60006020528060005260406000206000915090505481565b6000811161054c576040517f08c379a000000000000000000000000000000000000000000000000000000000815260040161054390610a57565b60405180910390fd5b600060018203610566576729a2241af62c0000905061057d565b81671bc16d674ec8000061057a9190610a77565b90505b803410156105c0576040517f08c379a00000000000000000000000000000000000000000000000000000000081526004016105b790610b2b565b60405180910390fd5b816000803373ffffffffffffffffffffffffffffffffffffffff1673ffffffffffffffffffffffffffffffffffffffff168152602001908152602001600020600082825461060e9190610b4b565b9250508190555080600160003373ffffffffffffffffffffffffffffffffffffffff1673ffffffffffffffffffffffffffffffffffffffff16815260200190815260200160002060008282546106649190610b4b565b925050819055503373ffffffffffffffffffffffffffffffffffffffff167f7d58f5ddf17a7f65d89554f5d8144ae1dc788046467927063c090f92ed1145dc83836040516106b3929190610b7f565b60405180910390a280341115610716573373ffffffffffffffffffffffffffffffffffffffff166108fc82346106e9919061096b565b9081150290604051600060405180830381858888f19350505050158015610714573d6000803e3d6000fd5b505b5050565b60016020528060005260406000206000915090505481565b60008060003373ffffffffffffffffffffffffffffffffffffffff1673ffffffffffffffffffffffffffffffffffffffff16815260200190815260200160002054905090565b6000819050919050565b61078b81610778565b82525050565b60006020820190506107a66000830184610782565b92915050565b600080fd5b6107ba81610778565b81146107c557600080fd5b50565b6000813590506107d7816107b1565b92915050565b6000602082840312156107f3576107f26107ac565b5b6000610801848285016107c8565b91505092915050565b600073ffffffffffffffffffffffffffffffffffffffff82169050919050565b60006108358261080a565b9050919050565b6108458161082a565b82525050565b6000602082019050610860600083018461083c565b92915050565b61086f8161082a565b811461087a57600080fd5b50565b60008135905061088c81610866565b92915050565b6000602082840312156108a8576108a76107ac565b5b60006108b68482850161087d565b91505092915050565b600082825260208201905092915050565b7f4e6f7420656e6f756768207469636b6574730000000000000000000000000000600082015250565b60006109066012836108bf565b9150610911826108d0565b602082019050919050565b60006020820190508181036000830152610935816108f9565b9050919050565b7f4e487b7100000000000000000000000000000000000000000000000000000000600052601160045260246000fd5b600061097682610778565b915061098183610778565b92508282039050818111156109995761099861093c565b5b92915050565b7f4f6e6c79206f776e65722063616e2077697468647261772062616c616e636500600082015250565b60006109d5601f836108bf565b91506109e08261099f565b602082019050919050565b60006020820190508181036000830152610a04816109c8565b9050919050565b7f4d757374207075726368617365206174206c656173742031207469636b657400600082015250565b6000610a41601f836108bf565b9150610a4c82610a0b565b602082019050919050565b60006020820190508181036000830152610a7081610a34565b9050919050565b6000610a8282610778565b9150610a8d83610778565b9250828202610a9b81610778565b91508282048414831517610ab257610ab161093c565b5b5092915050565b7f4e6f7420656e6f756768204554482073656e7420666f72207469636b6574207060008201527f7572636861736500000000000000000000000000000000000000000000000000602082015250565b6000610b156027836108bf565b9150610b2082610ab9565b604082019050919050565b60006020820190508181036000830152610b4481610b08565b9050919050565b6000610b5682610778565b9150610b6183610778565b9250828201905080821115610b7957610b7861093c565b5b92915050565b6000604082019050610b946000830185610782565b610ba16020830184610782565b939250505056fea264697066735822122058ab2910ef7a3225aac6dabdcc74a80ca4ca5cbec31b32b442dba7fbc21dbde064736f6c63430008110033","opcodes":"PUSH1 0x80 PUSH1 0x40 MSTORE CALLVALUE DUP1 ISZERO PUSH2 0x10 JUMPI PUSH1 0x0 DUP1 REVERT JUMPDEST POP CALLER PUSH1 0x2 PUSH1 0x0 PUSH2 0x100 EXP DUP2 SLOAD DUP2 PUSH20 0xFFFFFFFFFFFFFFFFFFFFFFFFFFFFFFFFFFFFFFFF MUL NOT AND SWAP1 DUP4 PUSH20 0xFFFFFFFFFFFFFFFFFFFFFFFFFFFFFFFFFFFFFFFF AND MUL OR SWAP1 SSTORE POP PUSH2 0xBDE DUP1 PUSH2 0x61 PUSH1 0x0 CODECOPY PUSH1 0x0 RETURN INVALID PUSH1 0x80 PUSH1 0x40 MSTORE PUSH1 0x4 CALLDATASIZE LT PUSH2 0x9C JUMPI PUSH1 0x0 CALLDATALOAD PUSH1 0xE0 SHR DUP1 PUSH4 0x6F9FB98A GT PUSH2 0x64 JUMPI DUP1 PUSH4 0x6F9FB98A EQ PUSH2 0x162 JUMPI DUP1 PUSH4 0x8DA5CB5B EQ PUSH2 0x18D JUMPI DUP1 PUSH4 0x951E2021 EQ PUSH2 0x1B8 JUMPI DUP1 PUSH4 0xA1277600 EQ PUSH2 0x1F5 JUMPI DUP1 PUSH4 0xCD93AEED EQ PUSH2 0x211 JUMPI DUP1 PUSH4 0xE1D10D85 EQ PUSH2 0x24E JUMPI PUSH2 0x9C JUMP JUMPDEST DUP1 PUSH4 0x1A896D99 EQ PUSH2 0xA1 JUMPI DUP1 PUSH4 0x2E1A7D4D EQ PUSH2 0xCC JUMPI DUP1 PUSH4 0x5267C7E4 EQ PUSH2 0xF5 JUMPI DUP1 PUSH4 0x546D7E7D EQ PUSH2 0x120 JUMPI DUP1 PUSH4 0x5FD8C710 EQ PUSH2 0x14B JUMPI JUMPDEST PUSH1 0x0 DUP1 REVERT JUMPDEST CALLVALUE DUP1 ISZERO PUSH2 0xAD JUMPI PUSH1 0x0 DUP1 REVERT JUMPDEST POP PUSH2 0xB6 PUSH2 0x279 JUMP JUMPDEST PUSH1 0x40 MLOAD PUSH2 0xC3 SWAP2 SWAP1 PUSH2 0x791 JUMP JUMPDEST PUSH1 0x40 MLOAD DUP1 SWAP2 SUB SWAP1 RETURN JUMPDEST CALLVALUE DUP1 ISZERO PUSH2 0xD8 JUMPI PUSH1 0x0 DUP1 REVERT JUMPDEST POP PUSH2 0xF3 PUSH1 0x4 DUP1 CALLDATASIZE SUB DUP2 ADD SWAP1 PUSH2 0xEE SWAP2 SWAP1 PUSH2 0x7DD JUMP JUMPDEST PUSH2 0x2C0 JUMP JUMPDEST STOP JUMPDEST CALLVALUE DUP1 ISZERO PUSH2 0x101 JUMPI PUSH1 0x0 DUP1 REVERT JUMPDEST POP PUSH2 0x10A PUSH2 0x3E9 JUMP JUMPDEST PUSH1 0x40 MLOAD PUSH2 0x117 SWAP2 SWAP1 PUSH2 0x791 JUMP JUMPDEST PUSH1 0x40 MLOAD DUP1 SWAP2 SUB SWAP1 RETURN JUMPDEST CALLVALUE DUP1 ISZERO PUSH2 0x12C JUMPI PUSH1 0x0 DUP1 REVERT JUMPDEST POP PUSH2 0x135 PUSH2 0x3F5 JUMP JUMPDEST PUSH1 0x40 MLOAD PUSH2 0x142 SWAP2 SWAP1 PUSH2 0x791 JUMP JUMPDEST PUSH1 0x40 MLOAD DUP1 SWAP2 SUB SWAP1 RETURN JUMPDEST CALLVALUE DUP1 ISZERO PUSH2 0x157 JUMPI PUSH1 0x0 DUP1 REVERT JUMPDEST POP PUSH2 0x160 PUSH2 0x401 JUMP JUMPDEST STOP JUMPDEST CALLVALUE DUP1 ISZERO PUSH2 0x16E JUMPI PUSH1 0x0 DUP1 REVERT JUMPDEST POP PUSH2 0x177 PUSH2 0x4BF JUMP JUMPDEST PUSH1 0x40 MLOAD PUSH2 0x184 SWAP2 SWAP1 PUSH2 0x791 JUMP JUMPDEST PUSH1 0x40 MLOAD DUP1 SWAP2 SUB SWAP1 RETURN JUMPDEST CALLVALUE DUP1 ISZERO PUSH2 0x199 JUMPI PUSH1 0x0 DUP1 REVERT JUMPDEST POP PUSH2 0x1A2 PUSH2 0x4C7 JUMP JUMPDEST PUSH1 0x40 MLOAD PUSH2 0x1AF SWAP2 SWAP1 PUSH2 0x84B JUMP JUMPDEST PUSH1 0x40 MLOAD DUP1 SWAP2 SUB SWAP1 RETURN JUMPDEST CALLVALUE DUP1 ISZERO PUSH2 0x1C4 JUMPI PUSH1 0x0 DUP1 REVERT JUMPDEST POP PUSH2 0x1DF PUSH1 0x4 DUP1 CALLDATASIZE SUB DUP2 ADD SWAP1 PUSH2 0x1DA SWAP2 SWAP1 PUSH2 0x892 JUMP JUMPDEST PUSH2 0x4F1 JUMP JUMPDEST PUSH1 0x40 MLOAD PUSH2 0x1EC SWAP2 SWAP1 PUSH2 0x791 JUMP JUMPDEST PUSH1 0x40 MLOAD DUP1 SWAP2 SUB SWAP1 RETURN JUMPDEST PUSH2 0x20F PUSH1 0x4 DUP1 CALLDATASIZE SUB DUP2 ADD SWAP1 PUSH2 0x20A SWAP2 SWAP1 PUSH2 0x7DD JUMP JUMPDEST PUSH2 0x509 JUMP JUMPDEST STOP JUMPDEST CALLVALUE DUP1 ISZERO PUSH2 0x21D JUMPI PUSH1 0x0 DUP1 REVERT JUMPDEST POP PUSH2 0x238 PUSH1 0x4 DUP1 CALLDATASIZE SUB DUP2 ADD SWAP1 PUSH2 0x233 SWAP2 SWAP1 PUSH2 0x892 JUMP JUMPDEST PUSH2 0x71A JUMP JUMPDEST PUSH1 0x40 MLOAD PUSH2 0x245 SWAP2 SWAP1 PUSH2 0x791 JUMP JUMPDEST PUSH1 0x40 MLOAD DUP1 SWAP2 SUB SWAP1 RETURN JUMPDEST CALLVALUE DUP1 ISZERO PUSH2 0x25A JUMPI PUSH1 0x0 DUP1 REVERT JUMPDEST POP PUSH2 0x263 PUSH2 0x732 JUMP JUMPDEST PUSH1 0x40 MLOAD PUSH2 0x270 SWAP2 SWAP1 PUSH2 0x791 JUMP JUMPDEST PUSH1 0x40 MLOAD DUP1 SWAP2 SUB SWAP1 RETURN JUMPDEST PUSH1 0x0 PUSH1 0x1 PUSH1 0x0 CALLER PUSH20 0xFFFFFFFFFFFFFFFFFFFFFFFFFFFFFFFFFFFFFFFF AND PUSH20 0xFFFFFFFFFFFFFFFFFFFFFFFFFFFFFFFFFFFFFFFF AND DUP2 MSTORE PUSH1 0x20 ADD SWAP1 DUP2 MSTORE PUSH1 0x20 ADD PUSH1 0x0 KECCAK256 SLOAD SWAP1 POP SWAP1 JUMP JUMPDEST DUP1 DUP1 PUSH1 0x0 DUP1 CALLER PUSH20 0xFFFFFFFFFFFFFFFFFFFFFFFFFFFFFFFFFFFFFFFF AND PUSH20 0xFFFFFFFFFFFFFFFFFFFFFFFFFFFFFFFFFFFFFFFF AND DUP2 MSTORE PUSH1 0x20 ADD SWAP1 DUP2 MSTORE PUSH1 0x20 ADD PUSH1 0x0 KECCAK256 SLOAD LT ISZERO PUSH2 0x342 JUMPI PUSH1 0x40 MLOAD PUSH32 0x8C379A000000000000000000000000000000000000000000000000000000000 DUP2 MSTORE PUSH1 0x4 ADD PUSH2 0x339 SWAP1 PUSH2 0x91C JUMP JUMPDEST PUSH1 0x40 MLOAD DUP1 SWAP2 SUB SWAP1 REVERT JUMPDEST DUP2 PUSH1 0x0 DUP1 CALLER PUSH20 0xFFFFFFFFFFFFFFFFFFFFFFFFFFFFFFFFFFFFFFFF AND PUSH20 0xFFFFFFFFFFFFFFFFFFFFFFFFFFFFFFFFFFFFFFFF AND DUP2 MSTORE PUSH1 0x20 ADD SWAP1 DUP2 MSTORE PUSH1 0x20 ADD PUSH1 0x0 KECCAK256 PUSH1 0x0 DUP3 DUP3 SLOAD PUSH2 0x390 SWAP2 SWAP1 PUSH2 0x96B JUMP JUMPDEST SWAP3 POP POP DUP2 SWAP1 SSTORE POP CALLER PUSH20 0xFFFFFFFFFFFFFFFFFFFFFFFFFFFFFFFFFFFFFFFF AND PUSH32 0x852301229E89F156E7C6DF258D5EA46465E2F22702EA66C266AD3A3252F5B944 DUP4 PUSH1 0x40 MLOAD PUSH2 0x3DD SWAP2 SWAP1 PUSH2 0x791 JUMP JUMPDEST PUSH1 0x40 MLOAD DUP1 SWAP2 SUB SWAP1 LOG2 POP POP JUMP JUMPDEST PUSH8 0x29A2241AF62C0000 DUP2 JUMP JUMPDEST PUSH8 0x1BC16D674EC80000 DUP2 JUMP JUMPDEST PUSH2 0x409 PUSH2 0x4C7 JUMP JUMPDEST PUSH20 0xFFFFFFFFFFFFFFFFFFFFFFFFFFFFFFFFFFFFFFFF AND CALLER PUSH20 0xFFFFFFFFFFFFFFFFFFFFFFFFFFFFFFFFFFFFFFFF AND EQ PUSH2 0x476 JUMPI PUSH1 0x40 MLOAD PUSH32 0x8C379A000000000000000000000000000000000000000000000000000000000 DUP2 MSTORE PUSH1 0x4 ADD PUSH2 0x46D SWAP1 PUSH2 0x9EB JUMP JUMPDEST PUSH1 0x40 MLOAD DUP1 SWAP2 SUB SWAP1 REVERT JUMPDEST CALLER PUSH20 0xFFFFFFFFFFFFFFFFFFFFFFFFFFFFFFFFFFFFFFFF AND PUSH2 0x8FC SELFBALANCE SWAP1 DUP2 ISZERO MUL SWAP1 PUSH1 0x40 MLOAD PUSH1 0x0 PUSH1 0x40 MLOAD DUP1 DUP4 SUB DUP2 DUP6 DUP9 DUP9 CALL SWAP4 POP POP POP POP ISZERO DUP1 ISZERO PUSH2 0x4BC JUMPI RETURNDATASIZE PUSH1 0x0 DUP1 RETURNDATACOPY RETURNDATASIZE PUSH1 0x0 REVERT JUMPDEST POP JUMP JUMPDEST PUSH1 0x0 SELFBALANCE SWAP1 POP SWAP1 JUMP JUMPDEST PUSH1 0x0 PUSH1 0x2 PUSH1 0x0 SWAP1 SLOAD SWAP1 PUSH2 0x100 EXP SWAP1 DIV PUSH20 0xFFFFFFFFFFFFFFFFFFFFFFFFFFFFFFFFFFFFFFFF AND SWAP1 POP SWAP1 JUMP JUMPDEST PUSH1 0x0 PUSH1 0x20 MSTORE DUP1 PUSH1 0x0 MSTORE PUSH1 0x40 PUSH1 0x0 KECCAK256 PUSH1 0x0 SWAP2 POP SWAP1 POP SLOAD DUP2 JUMP JUMPDEST PUSH1 0x0 DUP2 GT PUSH2 0x54C JUMPI PUSH1 0x40 MLOAD PUSH32 0x8C379A000000000000000000000000000000000000000000000000000000000 DUP2 MSTORE PUSH1 0x4 ADD PUSH2 0x543 SWAP1 PUSH2 0xA57 JUMP JUMPDEST PUSH1 0x40 MLOAD DUP1 SWAP2 SUB SWAP1 REVERT JUMPDEST PUSH1 0x0 PUSH1 0x1 DUP3 SUB PUSH2 0x566 JUMPI PUSH8 0x29A2241AF62C0000 SWAP1 POP PUSH2 0x57D JUMP JUMPDEST DUP2 PUSH8 0x1BC16D674EC80000 PUSH2 0x57A SWAP2 SWAP1 PUSH2 0xA77 JUMP JUMPDEST SWAP1 POP JUMPDEST DUP1 CALLVALUE LT ISZERO PUSH2 0x5C0 JUMPI PUSH1 0x40 MLOAD PUSH32 0x8C379A000000000000000000000000000000000000000000000000000000000 DUP2 MSTORE PUSH1 0x4 ADD PUSH2 0x5B7 SWAP1 PUSH2 0xB2B JUMP JUMPDEST PUSH1 0x40 MLOAD DUP1 SWAP2 SUB SWAP1 REVERT JUMPDEST DUP2 PUSH1 0x0 DUP1 CALLER PUSH20 0xFFFFFFFFFFFFFFFFFFFFFFFFFFFFFFFFFFFFFFFF AND PUSH20 0xFFFFFFFFFFFFFFFFFFFFFFFFFFFFFFFFFFFFFFFF AND DUP2 MSTORE PUSH1 0x20 ADD SWAP1 DUP2 MSTORE PUSH1 0x20 ADD PUSH1 0x0 KECCAK256 PUSH1 0x0 DUP3 DUP3 SLOAD PUSH2 0x60E SWAP2 SWAP1 PUSH2 0xB4B JUMP JUMPDEST SWAP3 POP POP DUP2 SWAP1 SSTORE POP DUP1 PUSH1 0x1 PUSH1 0x0 CALLER PUSH20 0xFFFFFFFFFFFFFFFFFFFFFFFFFFFFFFFFFFFFFFFF AND PUSH20 0xFFFFFFFFFFFFFFFFFFFFFFFFFFFFFFFFFFFFFFFF AND DUP2 MSTORE PUSH1 0x20 ADD SWAP1 DUP2 MSTORE PUSH1 0x20 ADD PUSH1 0x0 KECCAK256 PUSH1 0x0 DUP3 DUP3 SLOAD PUSH2 0x664 SWAP2 SWAP1 PUSH2 0xB4B JUMP JUMPDEST SWAP3 POP POP DUP2 SWAP1 SSTORE POP CALLER PUSH20 0xFFFFFFFFFFFFFFFFFFFFFFFFFFFFFFFFFFFFFFFF AND PUSH32 0x7D58F5DDF17A7F65D89554F5D8144AE1DC788046467927063C090F92ED1145DC DUP4 DUP4 PUSH1 0x40 MLOAD PUSH2 0x6B3 SWAP3 SWAP2 SWAP1 PUSH2 0xB7F JUMP JUMPDEST PUSH1 0x40 MLOAD DUP1 SWAP2 SUB SWAP1 LOG2 DUP1 CALLVALUE GT ISZERO PUSH2 0x716 JUMPI CALLER PUSH20 0xFFFFFFFFFFFFFFFFFFFFFFFFFFFFFFFFFFFFFFFF AND PUSH2 0x8FC DUP3 CALLVALUE PUSH2 0x6E9 SWAP2 SWAP1 PUSH2 0x96B JUMP JUMPDEST SWAP1 DUP2 ISZERO MUL SWAP1 PUSH1 0x40 MLOAD PUSH1 0x0 PUSH1 0x40 MLOAD DUP1 DUP4 SUB DUP2 DUP6 DUP9 DUP9 CALL SWAP4 POP POP POP POP ISZERO DUP1 ISZERO PUSH2 0x714 JUMPI RETURNDATASIZE PUSH1 0x0 DUP1 RETURNDATACOPY RETURNDATASIZE PUSH1 0x0 REVERT JUMPDEST POP JUMPDEST POP POP JUMP JUMPDEST PUSH1 0x1 PUSH1 0x20 MSTORE DUP1 PUSH1 0x0 MSTORE PUSH1 0x40 PUSH1 0x0 KECCAK256 PUSH1 0x0 SWAP2 POP SWAP1 POP SLOAD DUP2 JUMP JUMPDEST PUSH1 0x0 DUP1 PUSH1 0x0 CALLER PUSH20 0xFFFFFFFFFFFFFFFFFFFFFFFFFFFFFFFFFFFFFFFF AND PUSH20 0xFFFFFFFFFFFFFFFFFFFFFFFFFFFFFFFFFFFFFFFF AND DUP2 MSTORE PUSH1 0x20 ADD SWAP1 DUP2 MSTORE PUSH1 0x20 ADD PUSH1 0x0 KECCAK256 SLOAD SWAP1 POP SWAP1 JUMP JUMPDEST PUSH1 0x0 DUP2 SWAP1 POP SWAP2 SWAP1 POP JUMP JUMPDEST PUSH2 0x78B DUP2 PUSH2 0x778 JUMP JUMPDEST DUP3 MSTORE POP POP JUMP JUMPDEST PUSH1 0x0 PUSH1 0x20 DUP3 ADD SWAP1 POP PUSH2 0x7A6 PUSH1 0x0 DUP4 ADD DUP5 PUSH2 0x782 JUMP JUMPDEST SWAP3 SWAP2 POP POP JUMP JUMPDEST PUSH1 0x0 DUP1 REVERT JUMPDEST PUSH2 0x7BA DUP2 PUSH2 0x778 JUMP JUMPDEST DUP2 EQ PUSH2 0x7C5 JUMPI PUSH1 0x0 DUP1 REVERT JUMPDEST POP JUMP JUMPDEST PUSH1 0x0 DUP2 CALLDATALOAD SWAP1 POP PUSH2 0x7D7 DUP2 PUSH2 0x7B1 JUMP JUMPDEST SWAP3 SWAP2 POP POP JUMP JUMPDEST PUSH1 0x0 PUSH1 0x20 DUP3 DUP5 SUB SLT ISZERO PUSH2 0x7F3 JUMPI PUSH2 0x7F2 PUSH2 0x7AC JUMP JUMPDEST JUMPDEST PUSH1 0x0 PUSH2 0x801 DUP5 DUP3 DUP6 ADD PUSH2 0x7C8 JUMP JUMPDEST SWAP2 POP POP SWAP3 SWAP2 POP POP JUMP JUMPDEST PUSH1 0x0 PUSH20 0xFFFFFFFFFFFFFFFFFFFFFFFFFFFFFFFFFFFFFFFF DUP3 AND SWAP1 POP SWAP2 SWAP1 POP JUMP JUMPDEST PUSH1 0x0 PUSH2 0x835 DUP3 PUSH2 0x80A JUMP JUMPDEST SWAP1 POP SWAP2 SWAP1 POP JUMP JUMPDEST PUSH2 0x845 DUP2 PUSH2 0x82A JUMP JUMPDEST DUP3 MSTORE POP POP JUMP JUMPDEST PUSH1 0x0 PUSH1 0x20 DUP3 ADD SWAP1 POP PUSH2 0x860 PUSH1 0x0 DUP4 ADD DUP5 PUSH2 0x83C JUMP JUMPDEST SWAP3 SWAP2 POP POP JUMP JUMPDEST PUSH2 0x86F DUP2 PUSH2 0x82A JUMP JUMPDEST DUP2 EQ PUSH2 0x87A JUMPI PUSH1 0x0 DUP1 REVERT JUMPDEST POP JUMP JUMPDEST PUSH1 0x0 DUP2 CALLDATALOAD SWAP1 POP PUSH2 0x88C DUP2 PUSH2 0x866 JUMP JUMPDEST SWAP3 SWAP2 POP POP JUMP JUMPDEST PUSH1 0x0 PUSH1 0x20 DUP3 DUP5 SUB SLT ISZERO PUSH2 0x8A8 JUMPI PUSH2 0x8A7 PUSH2 0x7AC JUMP JUMPDEST JUMPDEST PUSH1 0x0 PUSH2 0x8B6 DUP5 DUP3 DUP6 ADD PUSH2 0x87D JUMP JUMPDEST SWAP2 POP POP SWAP3 SWAP2 POP POP JUMP JUMPDEST PUSH1 0x0 DUP3 DUP3 MSTORE PUSH1 0x20 DUP3 ADD SWAP1 POP SWAP3 SWAP2 POP POP JUMP JUMPDEST PUSH32 0x4E6F7420656E6F756768207469636B6574730000000000000000000000000000 PUSH1 0x0 DUP3 ADD MSTORE POP JUMP JUMPDEST PUSH1 0x0 PUSH2 0x906 PUSH1 0x12 DUP4 PUSH2 0x8BF JUMP JUMPDEST SWAP2 POP PUSH2 0x911 DUP3 PUSH2 0x8D0 JUMP JUMPDEST PUSH1 0x20 DUP3 ADD SWAP1 POP SWAP2 SWAP1 POP JUMP JUMPDEST PUSH1 0x0 PUSH1 0x20 DUP3 ADD SWAP1 POP DUP2 DUP2 SUB PUSH1 0x0 DUP4 ADD MSTORE PUSH2 0x935 DUP2 PUSH2 0x8F9 JUMP JUMPDEST SWAP1 POP SWAP2 SWAP1 POP JUMP JUMPDEST PUSH32 0x4E487B7100000000000000000000000000000000000000000000000000000000 PUSH1 0x0 MSTORE PUSH1 0x11 PUSH1 0x4 MSTORE PUSH1 0x24 PUSH1 0x0 REVERT JUMPDEST PUSH1 0x0 PUSH2 0x976 DUP3 PUSH2 0x778 JUMP JUMPDEST SWAP2 POP PUSH2 0x981 DUP4 PUSH2 0x778 JUMP JUMPDEST SWAP3 POP DUP3 DUP3 SUB SWAP1 POP DUP2 DUP2 GT ISZERO PUSH2 0x999 JUMPI PUSH2 0x998 PUSH2 0x93C JUMP JUMPDEST JUMPDEST SWAP3 SWAP2 POP POP JUMP JUMPDEST PUSH32 0x4F6E6C79206F776E65722063616E2077697468647261772062616C616E636500 PUSH1 0x0 DUP3 ADD MSTORE POP JUMP JUMPDEST PUSH1 0x0 PUSH2 0x9D5 PUSH1 0x1F DUP4 PUSH2 0x8BF JUMP JUMPDEST SWAP2 POP PUSH2 0x9E0 DUP3 PUSH2 0x99F JUMP JUMPDEST PUSH1 0x20 DUP3 ADD SWAP1 POP SWAP2 SWAP1 POP JUMP JUMPDEST PUSH1 0x0 PUSH1 0x20 DUP3 ADD SWAP1 POP DUP2 DUP2 SUB PUSH1 0x0 DUP4 ADD MSTORE PUSH2 0xA04 DUP2 PUSH2 0x9C8 JUMP JUMPDEST SWAP1 POP SWAP2 SWAP1 POP JUMP JUMPDEST PUSH32 0x4D757374207075726368617365206174206C656173742031207469636B657400 PUSH1 0x0 DUP3 ADD MSTORE POP JUMP JUMPDEST PUSH1 0x0 PUSH2 0xA41 PUSH1 0x1F DUP4 PUSH2 0x8BF JUMP JUMPDEST SWAP2 POP PUSH2 0xA4C DUP3 PUSH2 0xA0B JUMP JUMPDEST PUSH1 0x20 DUP3 ADD SWAP1 POP SWAP2 SWAP1 POP JUMP JUMPDEST PUSH1 0x0 PUSH1 0x20 DUP3 ADD SWAP1 POP DUP2 DUP2 SUB PUSH1 0x0 DUP4 ADD MSTORE PUSH2 0xA70 DUP2 PUSH2 0xA34 JUMP JUMPDEST SWAP1 POP SWAP2 SWAP1 POP JUMP JUMPDEST PUSH1 0x0 PUSH2 0xA82 DUP3 PUSH2 0x778 JUMP JUMPDEST SWAP2 POP PUSH2 0xA8D DUP4 PUSH2 0x778 JUMP JUMPDEST SWAP3 POP DUP3 DUP3 MUL PUSH2 0xA9B DUP2 PUSH2 0x778 JUMP JUMPDEST SWAP2 POP DUP3 DUP3 DIV DUP5 EQ DUP4 ISZERO OR PUSH2 0xAB2 JUMPI PUSH2 0xAB1 PUSH2 0x93C JUMP JUMPDEST JUMPDEST POP SWAP3 SWAP2 POP POP JUMP JUMPDEST PUSH32 0x4E6F7420656E6F756768204554482073656E7420666F72207469636B65742070 PUSH1 0x0 DUP3 ADD MSTORE PUSH32 0x7572636861736500000000000000000000000000000000000000000000000000 PUSH1 0x20 DUP3 ADD MSTORE POP JUMP JUMPDEST PUSH1 0x0 PUSH2 0xB15 PUSH1 0x27 DUP4 PUSH2 0x8BF JUMP JUMPDEST SWAP2 POP PUSH2 0xB20 DUP3 PUSH2 0xAB9 JUMP JUMPDEST PUSH1 0x40 DUP3 ADD SWAP1 POP SWAP2 SWAP1 POP JUMP JUMPDEST PUSH1 0x0 PUSH1 0x20 DUP3 ADD SWAP1 POP DUP2 DUP2 SUB PUSH1 0x0 DUP4 ADD MSTORE PUSH2 0xB44 DUP2 PUSH2 0xB08 JUMP JUMPDEST SWAP1 POP SWAP2 SWAP1 POP JUMP JUMPDEST PUSH1 0x0 PUSH2 0xB56 DUP3 PUSH2 0x778 JUMP JUMPDEST SWAP2 POP PUSH2 0xB61 DUP4 PUSH2 0x778 JUMP JUMPDEST SWAP3 POP DUP3 DUP3 ADD SWAP1 POP DUP1 DUP3 GT ISZERO PUSH2 0xB79 JUMPI PUSH2 0xB78 PUSH2 0x93C JUMP JUMPDEST JUMPDEST SWAP3 SWAP2 POP POP JUMP JUMPDEST PUSH1 0x0 PUSH1 0x40 DUP3 ADD SWAP1 POP PUSH2 0xB94 PUSH1 0x0 DUP4 ADD DUP6 PUSH2 0x782 JUMP JUMPDEST PUSH2 0xBA1 PUSH1 0x20 DUP4 ADD DUP5 PUSH2 0x782 JUMP JUMPDEST SWAP4 SWAP3 POP POP POP JUMP INVALID LOG2 PUSH5 0x6970667358 0x22 SLT KECCAK256 PC 0xAB 0x29 LT 0xEF PUSH27 0x3225AAC6DABDCC74A80CA4CA5CBEC31B32B442DBA7FBC21DBDE064 PUSH20 0x6F6C634300081100330000000000000000000000 "},"methodIdentifiers":{"bulkTicketPrice()":"546d7e7d","ethSpent(address)":"cd93aeed","getContractBalance()":"6f9fb98a","getETHSpent()":"1a896d99","getMyTickets()":"e1d10d85","owner()":"8da5cb5b","purchaseTickets(uint256)":"a1277600","singleTicketPrice()":"5267c7e4","ticketsOwned(address)":"951e2021","withdraw(uint256)":"2e1a7d4d","withdrawBalance()":"5fd8c710"}}}}}